{
  "_format": "hh-sol-artifact-1",
  "contractName": "ArcMemeMarket",
  "sourceName": "contracts/ArcMemeMarket.sol",
  "abi": [
    {
      "inputs": [
        {
          "internalType": "address",
          "name": "_memeToken",
          "type": "address"
        },
        {
          "internalType": "address",
          "name": "_usdcToken",
          "type": "address"
        },
        {
          "internalType": "address",
          "name": "_factoryOwner",
          "type": "address"
        }
      ],
      "stateMutability": "nonpayable",
      "type": "constructor"
    },
    {
      "inputs": [],
      "name": "EnforcedPause",
      "type": "error"
    },
    {
      "inputs": [],
      "name": "ExpectedPause",
      "type": "error"
    },
    {
      "inputs": [
        {
          "internalType": "address",
          "name": "owner",
          "type": "address"
        }
      ],
      "name": "OwnableInvalidOwner",
      "type": "error"
    },
    {
      "inputs": [
        {
          "internalType": "address",
          "name": "account",
          "type": "address"
        }
      ],
      "name": "OwnableUnauthorizedAccount",
      "type": "error"
    },
    {
      "inputs": [],
      "name": "ReentrancyGuardReentrantCall",
      "type": "error"
    },
    {
      "inputs": [
        {
          "internalType": "address",
          "name": "token",
          "type": "address"
        }
      ],
      "name": "SafeERC20FailedOperation",
      "type": "error"
    },
    {
      "anonymous": false,
      "inputs": [
        {
          "indexed": true,
          "internalType": "address",
          "name": "buyer",
          "type": "address"
        },
        {
          "indexed": false,
          "internalType": "uint256",
          "name": "usdcIn",
          "type": "uint256"
        },
        {
          "indexed": false,
          "internalType": "uint256",
          "name": "tokenOut",
          "type": "uint256"
        }
      ],
      "name": "Buy",
      "type": "event"
    },
    {
      "anonymous": false,
      "inputs": [
        {
          "indexed": false,
          "internalType": "uint256",
          "name": "tokenAmount",
          "type": "uint256"
        },
        {
          "indexed": false,
          "internalType": "uint256",
          "name": "usdcAmount",
          "type": "uint256"
        }
      ],
      "name": "MarketInitialized",
      "type": "event"
    },
    {
      "anonymous": false,
      "inputs": [
        {
          "indexed": true,
          "internalType": "address",
          "name": "previousOwner",
          "type": "address"
        },
        {
          "indexed": true,
          "internalType": "address",
          "name": "newOwner",
          "type": "address"
        }
      ],
      "name": "OwnershipTransferred",
      "type": "event"
    },
    {
      "anonymous": false,
      "inputs": [
        {
          "indexed": false,
          "internalType": "address",
          "name": "account",
          "type": "address"
        }
      ],
      "name": "Paused",
      "type": "event"
    },
    {
      "anonymous": false,
      "inputs": [
        {
          "indexed": true,
          "internalType": "address",
          "name": "seller",
          "type": "address"
        },
        {
          "indexed": false,
          "internalType": "uint256",
          "name": "tokenIn",
          "type": "uint256"
        },
        {
          "indexed": false,
          "internalType": "uint256",
          "name": "usdcOut",
          "type": "uint256"
        }
      ],
      "name": "Sell",
      "type": "event"
    },
    {
      "anonymous": false,
      "inputs": [
        {
          "indexed": false,
          "internalType": "address",
          "name": "account",
          "type": "address"
        }
      ],
      "name": "Unpaused",
      "type": "event"
    },
    {
      "inputs": [],
      "name": "MINIMUM_SEED_USDC",
      "outputs": [
        {
          "internalType": "uint256",
          "name": "",
          "type": "uint256"
        }
      ],
      "stateMutability": "view",
      "type": "function"
    },
    {
      "inputs": [
        {
          "internalType": "uint256",
          "name": "usdcAmount",
          "type": "uint256"
        },
        {
          "internalType": "uint256",
          "name": "minTokensOut",
          "type": "uint256"
        }
      ],
      "name": "buy",
      "outputs": [],
      "stateMutability": "nonpayable",
      "type": "function"
    },
    {
      "inputs": [],
      "name": "initialize",
      "outputs": [],
      "stateMutability": "nonpayable",
      "type": "function"
    },
    {
      "inputs": [],
      "name": "memeToken",
      "outputs": [
        {
          "internalType": "contract IERC20",
          "name": "",
          "type": "address"
        }
      ],
      "stateMutability": "view",
      "type": "function"
    },
    {
      "inputs": [],
      "name": "owner",
      "outputs": [
        {
          "internalType": "address",
          "name": "",
          "type": "address"
        }
      ],
      "stateMutability": "view",
      "type": "function"
    },
    {
      "inputs": [],
      "name": "pause",
      "outputs": [],
      "stateMutability": "nonpayable",
      "type": "function"
    },
    {
      "inputs": [],
      "name": "paused",
      "outputs": [
        {
          "internalType": "bool",
          "name": "",
          "type": "bool"
        }
      ],
      "stateMutability": "view",
      "type": "function"
    },
    {
      "inputs": [],
      "name": "renounceOwnership",
      "outputs": [],
      "stateMutability": "nonpayable",
      "type": "function"
    },
    {
      "inputs": [],
      "name": "reserveToken",
      "outputs": [
        {
          "internalType": "uint256",
          "name": "",
          "type": "uint256"
        }
      ],
      "stateMutability": "view",
      "type": "function"
    },
    {
      "inputs": [],
      "name": "reserveUSDC",
      "outputs": [
        {
          "internalType": "uint256",
          "name": "",
          "type": "uint256"
        }
      ],
      "stateMutability": "view",
      "type": "function"
    },
    {
      "inputs": [
        {
          "internalType": "uint256",
          "name": "tokenAmount",
          "type": "uint256"
        },
        {
          "internalType": "uint256",
          "name": "minUsdcOut",
          "type": "uint256"
        }
      ],
      "name": "sell",
      "outputs": [],
      "stateMutability": "nonpayable",
      "type": "function"
    },
    {
      "inputs": [
        {
          "internalType": "address",
          "name": "newOwner",
          "type": "address"
        }
      ],
      "name": "transferOwnership",
      "outputs": [],
      "stateMutability": "nonpayable",
      "type": "function"
    },
    {
      "inputs": [],
      "name": "unpause",
      "outputs": [],
      "stateMutability": "nonpayable",
      "type": "function"
    },
    {
      "inputs": [],
      "name": "usdcToken",
      "outputs": [
        {
          "internalType": "contract IERC20",
          "name": "",
          "type": "address"
        }
      ],
      "stateMutability": "view",
      "type": "function"
    }
  ],
  "bytecode": "0x60c06040523480156200001157600080fd5b5060405162001c5838038062001c588339818101604052810190620000379190620003a0565b8060016200005a6200004e6200023d60201b60201c565b6200026860201b60201c565b60000181905550600073ffffffffffffffffffffffffffffffffffffffff168173ffffffffffffffffffffffffffffffffffffffff1603620000d65760006040517f1e4fbdf7000000000000000000000000000000000000000000000000000000008152600401620000cd91906200040d565b60405180910390fd5b620000e7816200027260201b60201c565b50600073ffffffffffffffffffffffffffffffffffffffff168373ffffffffffffffffffffffffffffffffffffffff16036200015a576040517f08c379a000000000000000000000000000000000000000000000000000000000815260040162000151906200048b565b60405180910390fd5b600073ffffffffffffffffffffffffffffffffffffffff168273ffffffffffffffffffffffffffffffffffffffff1603620001cc576040517f08c379a0000000000000000000000000000000000000000000000000000000008152600401620001c390620004fd565b60405180910390fd5b8273ffffffffffffffffffffffffffffffffffffffff1660808173ffffffffffffffffffffffffffffffffffffffff16815250508173ffffffffffffffffffffffffffffffffffffffff1660a08173ffffffffffffffffffffffffffffffffffffffff16815250505050506200051f565b60007f9b779b17422d0df92223018b32b4d1fa46e071723d6817e2486d003becc55f0060001b905090565b6000819050919050565b60008060009054906101000a900473ffffffffffffffffffffffffffffffffffffffff169050816000806101000a81548173ffffffffffffffffffffffffffffffffffffffff021916908373ffffffffffffffffffffffffffffffffffffffff1602179055508173ffffffffffffffffffffffffffffffffffffffff168173ffffffffffffffffffffffffffffffffffffffff167f8be0079c531659141344cd1fd0a4f28419497f9722a3daafe3b4186f6b6457e060405160405180910390a35050565b600080fd5b600073ffffffffffffffffffffffffffffffffffffffff82169050919050565b600062000368826200033b565b9050919050565b6200037a816200035b565b81146200038657600080fd5b50565b6000815190506200039a816200036f565b92915050565b600080600060608486031215620003bc57620003bb62000336565b5b6000620003cc8682870162000389565b9350506020620003df8682870162000389565b9250506040620003f28682870162000389565b9150509250925092565b62000407816200035b565b82525050565b6000602082019050620004246000830184620003fc565b92915050565b600082825260208201905092915050565b7f496e76616c696420746f6b656e20616464726573730000000000000000000000600082015250565b6000620004736015836200042a565b915062000480826200043b565b602082019050919050565b60006020820190508181036000830152620004a68162000464565b9050919050565b7f496e76616c696420555344432061646472657373000000000000000000000000600082015250565b6000620004e56014836200042a565b9150620004f282620004ad565b602082019050919050565b600060208201905081810360008301526200051881620004d6565b9050919050565b60805160a0516116e96200056f6000396000818161023f015281816103e4015281816106df01526109db015260008181610303015281816105580152818161075d015261095d01526116e96000f3fe608060405234801561001057600080fd5b50600436106100ea5760003560e01c80638da5cb5b1161008c578063d6febde811610066578063d6febde8146101cb578063d79875eb146101e7578063f2fde38b14610203578063f4325d671461021f576100ea565b80638da5cb5b14610171578063972598e71461018f578063c87b502e146101ad576100ea565b80635c975abb116100c85780635c975abb14610135578063715018a6146101535780638129fc1c1461015d5780638456cb5914610167576100ea565b806311eac855146100ef5780633f4ba83a1461010d5780635aed4c7014610117575b600080fd5b6100f761023d565b604051610104919061107f565b60405180910390f35b610115610261565b005b61011f610273565b60405161012c91906110b3565b60405180910390f35b61013d61027a565b60405161014a91906110e9565b60405180910390f35b61015b610290565b005b6101656102a4565b005b61016f61051b565b005b61017961052d565b6040516101869190611125565b60405180910390f35b610197610556565b6040516101a4919061107f565b60405180910390f35b6101b561057a565b6040516101c291906110b3565b60405180910390f35b6101e560048036038101906101e09190611171565b610580565b005b61020160048036038101906101fc9190611171565b6107fe565b005b61021d600480360381019061021891906111dd565b610a7c565b005b610227610b02565b60405161023491906110b3565b60405180910390f35b7f000000000000000000000000000000000000000000000000000000000000000081565b610269610b08565b610271610b8f565b565b6298968081565b60008060149054906101000a900460ff16905090565b610298610b08565b6102a26000610bf1565b565b6102ac610cb5565b60006002541480156102c057506000600154145b6102ff576040517f08c379a00000000000000000000000000000000000000000000000000000000081526004016102f690611267565b60405180910390fd5b60007f000000000000000000000000000000000000000000000000000000000000000073ffffffffffffffffffffffffffffffffffffffff166370a08231306040518263ffffffff1660e01b815260040161035a9190611125565b602060405180830381865afa158015610377573d6000803e3d6000fd5b505050506040513d601f19601f8201168201806040525081019061039b919061129c565b9050600081116103e0576040517f08c379a00000000000000000000000000000000000000000000000000000000081526004016103d790611315565b60405180910390fd5b60007f000000000000000000000000000000000000000000000000000000000000000073ffffffffffffffffffffffffffffffffffffffff166370a08231306040518263ffffffff1660e01b815260040161043b9190611125565b602060405180830381865afa158015610458573d6000803e3d6000fd5b505050506040513d601f19601f8201168201806040525081019061047c919061129c565b9050629896808110156104c4576040517f08c379a00000000000000000000000000000000000000000000000000000000081526004016104bb90611381565b60405180910390fd5b81600181905550806002819055507f3ffddaebf2131ba012fa389229b73814e7ab6eea5db6e24b19ef484c55b2490f6001546002546040516105079291906113a1565b60405180910390a15050610519610cd8565b565b610523610b08565b61052b610cf3565b565b60008060009054906101000a900473ffffffffffffffffffffffffffffffffffffffff16905090565b7f000000000000000000000000000000000000000000000000000000000000000081565b60025481565b610588610cb5565b610590610d56565b600082116105d3576040517f08c379a00000000000000000000000000000000000000000000000000000000081526004016105ca90611416565b60405180910390fd5b60006002541180156105e757506000600154115b610626576040517f08c379a000000000000000000000000000000000000000000000000000000000815260040161061d90611482565b60405180910390fd5b60008260025461063691906114d1565b836001546106449190611505565b61064e9190611576565b905081811015610693576040517f08c379a000000000000000000000000000000000000000000000000000000000815260040161068a906115f3565b60405180910390fd5b60015481106106d7576040517f08c379a00000000000000000000000000000000000000000000000000000000081526004016106ce9061165f565b60405180910390fd5b6107243330857f000000000000000000000000000000000000000000000000000000000000000073ffffffffffffffffffffffffffffffffffffffff16610d97909392919063ffffffff16565b826002600082825461073691906114d1565b92505081905550806001600082825461074f919061167f565b925050819055506107a133827f000000000000000000000000000000000000000000000000000000000000000073ffffffffffffffffffffffffffffffffffffffff16610dec9092919063ffffffff16565b3373ffffffffffffffffffffffffffffffffffffffff167f1cbc5ab135991bd2b6a4b034a04aa2aa086dac1371cb9b16b8b5e2ed6b036bed84836040516107e99291906113a1565b60405180910390a2506107fa610cd8565b5050565b610806610cb5565b61080e610d56565b60008211610851576040517f08c379a000000000000000000000000000000000000000000000000000000000815260040161084890611416565b60405180910390fd5b600060025411801561086557506000600154115b6108a4576040517f08c379a000000000000000000000000000000000000000000000000000000000815260040161089b90611482565b60405180910390fd5b6000826001546108b491906114d1565b836002546108c29190611505565b6108cc9190611576565b905081811015610911576040517f08c379a0000000000000000000000000000000000000000000000000000000008152600401610908906115f3565b60405180910390fd5b6002548110610955576040517f08c379a000000000000000000000000000000000000000000000000000000000815260040161094c9061165f565b60405180910390fd5b6109a23330857f000000000000000000000000000000000000000000000000000000000000000073ffffffffffffffffffffffffffffffffffffffff16610d97909392919063ffffffff16565b82600160008282546109b491906114d1565b9250508190555080600260008282546109cd919061167f565b92505081905550610a1f33827f000000000000000000000000000000000000000000000000000000000000000073ffffffffffffffffffffffffffffffffffffffff16610dec9092919063ffffffff16565b3373ffffffffffffffffffffffffffffffffffffffff167fed7a144fad14804d5c249145e3e0e2b63a9eb455b76aee5bc92d711e9bba3e4a8483604051610a679291906113a1565b60405180910390a250610a78610cd8565b5050565b610a84610b08565b600073ffffffffffffffffffffffffffffffffffffffff168173ffffffffffffffffffffffffffffffffffffffff1603610af65760006040517f1e4fbdf7000000000000000000000000000000000000000000000000000000008152600401610aed9190611125565b60405180910390fd5b610aff81610bf1565b50565b60015481565b610b10610e3f565b73ffffffffffffffffffffffffffffffffffffffff16610b2e61052d565b73ffffffffffffffffffffffffffffffffffffffff1614610b8d57610b51610e3f565b6040517f118cdaa7000000000000000000000000000000000000000000000000000000008152600401610b849190611125565b60405180910390fd5b565b610b97610e47565b60008060146101000a81548160ff0219169083151502179055507f5db9ee0a495bf2e6ff9c91a7834c1ba4fdd244a5e8aa4e537bd38aeae4b073aa610bda610e3f565b604051610be79190611125565b60405180910390a1565b60008060009054906101000a900473ffffffffffffffffffffffffffffffffffffffff169050816000806101000a81548173ffffffffffffffffffffffffffffffffffffffff021916908373ffffffffffffffffffffffffffffffffffffffff1602179055508173ffffffffffffffffffffffffffffffffffffffff168173ffffffffffffffffffffffffffffffffffffffff167f8be0079c531659141344cd1fd0a4f28419497f9722a3daafe3b4186f6b6457e060405160405180910390a35050565b610cbd610e87565b6002610ccf610cca610ec8565b610ef3565b60000181905550565b6001610cea610ce5610ec8565b610ef3565b60000181905550565b610cfb610d56565b6001600060146101000a81548160ff0219169083151502179055507f62e78cea01bee320cd4e420270b5ea74000d11b0c9f74754ebdbfc544b05a258610d3f610e3f565b604051610d4c9190611125565b60405180910390a1565b610d5e61027a565b15610d95576040517fd93c066500000000000000000000000000000000000000000000000000000000815260040160405180910390fd5b565b610da5848484846001610efd565b610de657836040517f5274afe7000000000000000000000000000000000000000000000000000000008152600401610ddd9190611125565b60405180910390fd5b50505050565b610df98383836001610f78565b610e3a57826040517f5274afe7000000000000000000000000000000000000000000000000000000008152600401610e319190611125565b60405180910390fd5b505050565b600033905090565b610e4f61027a565b610e85576040517f8dfc202b00000000000000000000000000000000000000000000000000000000815260040160405180910390fd5b565b610e8f610fe2565b15610ec6576040517f3ee5aeb500000000000000000000000000000000000000000000000000000000815260040160405180910390fd5b565b60007f9b779b17422d0df92223018b32b4d1fa46e071723d6817e2486d003becc55f0060001b905090565b6000819050919050565b6000806323b872dd60e01b90506040518160005260001960601c871660045260001960601c8616602452846044526020600060646000808c5af192506001600051148316610f64578383151615610f57573d6000823e3d81fd5b6000883b113d1516831692505b806040526000606052505095945050505050565b60008063a9059cbb60e01b90506040518160005260001960601c8616600452846024526020600060446000808b5af192506001600051148316610fd4578383151615610fc7573d6000823e3d81fd5b6000873b113d1516831692505b806040525050949350505050565b60006002610ff6610ff1610ec8565b610ef3565b6000015414905090565b600073ffffffffffffffffffffffffffffffffffffffff82169050919050565b6000819050919050565b600061104561104061103b84611000565b611020565b611000565b9050919050565b60006110578261102a565b9050919050565b60006110698261104c565b9050919050565b6110798161105e565b82525050565b60006020820190506110946000830184611070565b92915050565b6000819050919050565b6110ad8161109a565b82525050565b60006020820190506110c860008301846110a4565b92915050565b60008115159050919050565b6110e3816110ce565b82525050565b60006020820190506110fe60008301846110da565b92915050565b600061110f82611000565b9050919050565b61111f81611104565b82525050565b600060208201905061113a6000830184611116565b92915050565b600080fd5b61114e8161109a565b811461115957600080fd5b50565b60008135905061116b81611145565b92915050565b6000806040838503121561118857611187611140565b5b60006111968582860161115c565b92505060206111a78582860161115c565b9150509250929050565b6111ba81611104565b81146111c557600080fd5b50565b6000813590506111d7816111b1565b92915050565b6000602082840312156111f3576111f2611140565b5b6000611201848285016111c8565b91505092915050565b600082825260208201905092915050565b7f416c726561647920696e697469616c697a656400000000000000000000000000600082015250565b600061125160138361120a565b915061125c8261121b565b602082019050919050565b6000602082019050818103600083015261128081611244565b9050919050565b60008151905061129681611145565b92915050565b6000602082840312156112b2576112b1611140565b5b60006112c084828501611287565b91505092915050565b7f4e6f20746f6b656e732070726f766964656420666f72206c6971756964697479600082015250565b60006112ff60208361120a565b915061130a826112c9565b602082019050919050565b6000602082019050818103600083015261132e816112f2565b9050919050565b7f496e73756666696369656e742055534443207365656400000000000000000000600082015250565b600061136b60168361120a565b915061137682611335565b602082019050919050565b6000602082019050818103600083015261139a8161135e565b9050919050565b60006040820190506113b660008301856110a4565b6113c360208301846110a4565b9392505050565b7f496e76616c696420696e70757420616d6f756e74000000000000000000000000600082015250565b600061140060148361120a565b915061140b826113ca565b602082019050919050565b6000602082019050818103600083015261142f816113f3565b9050919050565b7f4d61726b6574206e6f7420696e697469616c697a656400000000000000000000600082015250565b600061146c60168361120a565b915061147782611436565b602082019050919050565b6000602082019050818103600083015261149b8161145f565b9050919050565b7f4e487b7100000000000000000000000000000000000000000000000000000000600052601160045260246000fd5b60006114dc8261109a565b91506114e78361109a565b92508282019050808211156114ff576114fe6114a2565b5b92915050565b60006115108261109a565b915061151b8361109a565b92508282026115298161109a565b915082820484148315176115405761153f6114a2565b5b5092915050565b7f4e487b7100000000000000000000000000000000000000000000000000000000600052601260045260246000fd5b60006115818261109a565b915061158c8361109a565b92508261159c5761159b611547565b5b828204905092915050565b7f536c69707061676520746f6c6572616e63652065786365656465640000000000600082015250565b60006115dd601b8361120a565b91506115e8826115a7565b602082019050919050565b6000602082019050818103600083015261160c816115d0565b9050919050565b7f496e73756666696369656e74206c697175696469747900000000000000000000600082015250565b600061164960168361120a565b915061165482611613565b602082019050919050565b600060208201905081810360008301526116788161163c565b9050919050565b600061168a8261109a565b91506116958361109a565b92508282039050818111156116ad576116ac6114a2565b5b9291505056fea264697066735822122052fe8fe99905921e08a4338be3001437e98d876b297dcd323bd3f44ea739473464736f6c63430008180033",
  "linkReferences": {},
  "deployedLinkReferences": {}
}