{
  "_format": "hh-sol-artifact-1",
  "contractName": "ArcMemeFactory",
  "sourceName": "contracts/ArcMemeFactory.sol",
  "abi": [
    {
      "inputs": [
        {
          "internalType": "address",
          "name": "_usdcToken",
          "type": "address"
        },
        {
          "internalType": "address",
          "name": "_initialOwner",
          "type": "address"
        }
      ],
      "stateMutability": "nonpayable",
      "type": "constructor"
    },
    {
      "inputs": [
        {
          "internalType": "address",
          "name": "owner",
          "type": "address"
        }
      ],
      "name": "OwnableInvalidOwner",
      "type": "error"
    },
    {
      "inputs": [
        {
          "internalType": "address",
          "name": "account",
          "type": "address"
        }
      ],
      "name": "OwnableUnauthorizedAccount",
      "type": "error"
    },
    {
      "inputs": [
        {
          "internalType": "address",
          "name": "token",
          "type": "address"
        }
      ],
      "name": "SafeERC20FailedOperation",
      "type": "error"
    },
    {
      "anonymous": false,
      "inputs": [
        {
          "indexed": true,
          "internalType": "address",
          "name": "previousOwner",
          "type": "address"
        },
        {
          "indexed": true,
          "internalType": "address",
          "name": "newOwner",
          "type": "address"
        }
      ],
      "name": "OwnershipTransferred",
      "type": "event"
    },
    {
      "anonymous": false,
      "inputs": [
        {
          "indexed": true,
          "internalType": "address",
          "name": "token",
          "type": "address"
        },
        {
          "indexed": true,
          "internalType": "address",
          "name": "market",
          "type": "address"
        },
        {
          "indexed": true,
          "internalType": "address",
          "name": "creator",
          "type": "address"
        },
        {
          "indexed": false,
          "internalType": "string",
          "name": "name",
          "type": "string"
        },
        {
          "indexed": false,
          "internalType": "string",
          "name": "symbol",
          "type": "string"
        },
        {
          "indexed": false,
          "internalType": "uint256",
          "name": "usdcSeed",
          "type": "uint256"
        }
      ],
      "name": "TokenCreated",
      "type": "event"
    },
    {
      "inputs": [],
      "name": "MINIMUM_SEED_USDC",
      "outputs": [
        {
          "internalType": "uint256",
          "name": "",
          "type": "uint256"
        }
      ],
      "stateMutability": "view",
      "type": "function"
    },
    {
      "inputs": [
        {
          "internalType": "uint256",
          "name": "",
          "type": "uint256"
        }
      ],
      "name": "allTokens",
      "outputs": [
        {
          "internalType": "address",
          "name": "",
          "type": "address"
        }
      ],
      "stateMutability": "view",
      "type": "function"
    },
    {
      "inputs": [
        {
          "internalType": "string",
          "name": "name",
          "type": "string"
        },
        {
          "internalType": "string",
          "name": "symbol",
          "type": "string"
        },
        {
          "internalType": "uint256",
          "name": "usdcSeed",
          "type": "uint256"
        }
      ],
      "name": "createToken",
      "outputs": [
        {
          "internalType": "address",
          "name": "token",
          "type": "address"
        },
        {
          "internalType": "address",
          "name": "market",
          "type": "address"
        }
      ],
      "stateMutability": "nonpayable",
      "type": "function"
    },
    {
      "inputs": [],
      "name": "getAllTokens",
      "outputs": [
        {
          "internalType": "address[]",
          "name": "",
          "type": "address[]"
        }
      ],
      "stateMutability": "view",
      "type": "function"
    },
    {
      "inputs": [],
      "name": "getTokensCount",
      "outputs": [
        {
          "internalType": "uint256",
          "name": "",
          "type": "uint256"
        }
      ],
      "stateMutability": "view",
      "type": "function"
    },
    {
      "inputs": [
        {
          "internalType": "address",
          "name": "",
          "type": "address"
        }
      ],
      "name": "isMarket",
      "outputs": [
        {
          "internalType": "bool",
          "name": "",
          "type": "bool"
        }
      ],
      "stateMutability": "view",
      "type": "function"
    },
    {
      "inputs": [],
      "name": "owner",
      "outputs": [
        {
          "internalType": "address",
          "name": "",
          "type": "address"
        }
      ],
      "stateMutability": "view",
      "type": "function"
    },
    {
      "inputs": [],
      "name": "renounceOwnership",
      "outputs": [],
      "stateMutability": "nonpayable",
      "type": "function"
    },
    {
      "inputs": [
        {
          "internalType": "address",
          "name": "",
          "type": "address"
        }
      ],
      "name": "tokenToMarket",
      "outputs": [
        {
          "internalType": "address",
          "name": "",
          "type": "address"
        }
      ],
      "stateMutability": "view",
      "type": "function"
    },
    {
      "inputs": [
        {
          "internalType": "address",
          "name": "newOwner",
          "type": "address"
        }
      ],
      "name": "transferOwnership",
      "outputs": [],
      "stateMutability": "nonpayable",
      "type": "function"
    },
    {
      "inputs": [],
      "name": "usdcToken",
      "outputs": [
        {
          "internalType": "contract IERC20",
          "name": "",
          "type": "address"
        }
      ],
      "stateMutability": "view",
      "type": "function"
    }
  ],
  "bytecode": "0x60a06040523480156200001157600080fd5b50604051620050613803806200506183398181016040528101906200003791906200029b565b80600073ffffffffffffffffffffffffffffffffffffffff168173ffffffffffffffffffffffffffffffffffffffff1603620000ad5760006040517f1e4fbdf7000000000000000000000000000000000000000000000000000000008152600401620000a49190620002f3565b60405180910390fd5b620000be816200016d60201b60201c565b50600073ffffffffffffffffffffffffffffffffffffffff168273ffffffffffffffffffffffffffffffffffffffff160362000131576040517f08c379a0000000000000000000000000000000000000000000000000000000008152600401620001289062000371565b60405180910390fd5b8173ffffffffffffffffffffffffffffffffffffffff1660808173ffffffffffffffffffffffffffffffffffffffff1681525050505062000393565b60008060009054906101000a900473ffffffffffffffffffffffffffffffffffffffff169050816000806101000a81548173ffffffffffffffffffffffffffffffffffffffff021916908373ffffffffffffffffffffffffffffffffffffffff1602179055508173ffffffffffffffffffffffffffffffffffffffff168173ffffffffffffffffffffffffffffffffffffffff167f8be0079c531659141344cd1fd0a4f28419497f9722a3daafe3b4186f6b6457e060405160405180910390a35050565b600080fd5b600073ffffffffffffffffffffffffffffffffffffffff82169050919050565b6000620002638262000236565b9050919050565b620002758162000256565b81146200028157600080fd5b50565b60008151905062000295816200026a565b92915050565b60008060408385031215620002b557620002b462000231565b5b6000620002c58582860162000284565b9250506020620002d88582860162000284565b9150509250929050565b620002ed8162000256565b82525050565b60006020820190506200030a6000830184620002e2565b92915050565b600082825260208201905092915050565b7f496e76616c696420555344432061646472657373000000000000000000000000600082015250565b60006200035960148362000310565b9150620003668262000321565b602082019050919050565b600060208201905081810360008301526200038c816200034a565b9050919050565b608051614ca4620003bd6000396000818161026e01528181610457015261074e0152614ca46000f3fe60806040523480156200001157600080fd5b5060043610620000b85760003560e01c8063634282af116200007b578063634282af146200017c5780636ec934da14620001b2578063715018a614620001e85780638da5cb5b14620001f4578063f02db70d1462000216578063f2fde38b146200024c57620000b8565b806311eac85514620000bd5780632a5c792a14620000df5780633962f82d14620001015780635aed4c7014620001235780635b0605301462000145575b600080fd5b620000c76200026c565b604051620000d6919062000cbe565b60405180910390f35b620000e962000290565b604051620000f8919062000dbd565b60405180910390f35b6200010b62000320565b6040516200011a919062000dfc565b60405180910390f35b6200012d6200032d565b6040516200013c919062000dfc565b60405180910390f35b6200016360048036038101906200015d919062000fc0565b62000334565b604051620001739291906200106b565b60405180910390f35b6200019a600480360381019062000194919062001098565b62000883565b604051620001a99190620010ca565b60405180910390f35b620001d06004803603810190620001ca919062001118565b620008c3565b604051620001df919062001167565b60405180910390f35b620001f2620008e3565b005b620001fe620008fb565b6040516200020d9190620010ca565b60405180910390f35b6200023460048036038101906200022e919062001118565b62000924565b604051620002439190620010ca565b60405180910390f35b6200026a600480360381019062000264919062001118565b62000957565b005b7f000000000000000000000000000000000000000000000000000000000000000081565b606060018054806020026020016040519081016040528092919081815260200182805480156200031657602002820191906000526020600020905b8160009054906101000a900473ffffffffffffffffffffffffffffffffffffffff1673ffffffffffffffffffffffffffffffffffffffff1681526020019060010190808311620002cb575b5050505050905090565b6000600180549050905090565b6298968081565b60008060008551116200037e576040517f08c379a00000000000000000000000000000000000000000000000000000000081526004016200037590620011e5565b60405180910390fd5b6000845111620003c5576040517f08c379a0000000000000000000000000000000000000000000000000000000008152600401620003bc9062001257565b60405180910390fd5b629896808310156200040e576040517f08c379a00000000000000000000000000000000000000000000000000000000081526004016200040590620012c9565b60405180910390fd5b6000858533604051620004219062000c17565b6200042f9392919062001363565b604051809103906000f0801580156200044c573d6000803e3d6000fd5b5090508092506000837f000000000000000000000000000000000000000000000000000000000000000062000480620008fb565b6040516200048e9062000c25565b6200049c93929190620013ae565b604051809103906000f080158015620004b9573d6000803e3d6000fd5b5090508092506001849080600181540180825580915050600190039060005260206000200160009091909190916101000a81548173ffffffffffffffffffffffffffffffffffffffff021916908373ffffffffffffffffffffffffffffffffffffffff16021790555082600260008673ffffffffffffffffffffffffffffffffffffffff1673ffffffffffffffffffffffffffffffffffffffff16815260200190815260200160002060006101000a81548173ffffffffffffffffffffffffffffffffffffffff021916908373ffffffffffffffffffffffffffffffffffffffff1602179055506001600360008573ffffffffffffffffffffffffffffffffffffffff1673ffffffffffffffffffffffffffffffffffffffff16815260200190815260200160002060006101000a81548160ff02191690831515021790555060008273ffffffffffffffffffffffffffffffffffffffff166370a08231306040518263ffffffff1660e01b8152600401620006359190620010ca565b602060405180830381865afa15801562000653573d6000803e3d6000fd5b505050506040513d601f19601f8201168201806040525081019062000679919062001402565b905060008111620006c1576040517f08c379a0000000000000000000000000000000000000000000000000000000008152600401620006b89062001484565b60405180910390fd5b8273ffffffffffffffffffffffffffffffffffffffff1663a9059cbb85836040518363ffffffff1660e01b8152600401620006fe929190620014a6565b6020604051808303816000875af11580156200071e573d6000803e3d6000fd5b505050506040513d601f19601f8201168201806040525081019062000744919062001504565b50620007943385887f000000000000000000000000000000000000000000000000000000000000000073ffffffffffffffffffffffffffffffffffffffff16620009e4909392919063ffffffff16565b8173ffffffffffffffffffffffffffffffffffffffff16638129fc1c6040518163ffffffff1660e01b8152600401600060405180830381600087803b158015620007dd57600080fd5b505af1158015620007f2573d6000803e3d6000fd5b505050503373ffffffffffffffffffffffffffffffffffffffff168473ffffffffffffffffffffffffffffffffffffffff168673ffffffffffffffffffffffffffffffffffffffff167f7a7058611603c7ca91cacdca0ad54685e83095e43aee6eeb1639c8148dd0a2658b8b8b604051620008709392919062001536565b60405180910390a4505050935093915050565b600181815481106200089457600080fd5b906000526020600020016000915054906101000a900473ffffffffffffffffffffffffffffffffffffffff1681565b60036020528060005260406000206000915054906101000a900460ff1681565b620008ed62000a3e565b620008f9600062000ace565b565b60008060009054906101000a900473ffffffffffffffffffffffffffffffffffffffff16905090565b60026020528060005260406000206000915054906101000a900473ffffffffffffffffffffffffffffffffffffffff1681565b6200096162000a3e565b600073ffffffffffffffffffffffffffffffffffffffff168173ffffffffffffffffffffffffffffffffffffffff1603620009d65760006040517f1e4fbdf7000000000000000000000000000000000000000000000000000000008152600401620009cd9190620010ca565b60405180910390fd5b620009e18162000ace565b50565b620009f484848484600162000b92565b62000a3857836040517f5274afe700000000000000000000000000000000000000000000000000000000815260040162000a2f9190620010ca565b60405180910390fd5b50505050565b62000a4862000c0f565b73ffffffffffffffffffffffffffffffffffffffff1662000a68620008fb565b73ffffffffffffffffffffffffffffffffffffffff161462000acc5762000a8e62000c0f565b6040517f118cdaa700000000000000000000000000000000000000000000000000000000815260040162000ac39190620010ca565b60405180910390fd5b565b60008060009054906101000a900473ffffffffffffffffffffffffffffffffffffffff169050816000806101000a81548173ffffffffffffffffffffffffffffffffffffffff021916908373ffffffffffffffffffffffffffffffffffffffff1602179055508173ffffffffffffffffffffffffffffffffffffffff168173ffffffffffffffffffffffffffffffffffffffff167f8be0079c531659141344cd1fd0a4f28419497f9722a3daafe3b4186f6b6457e060405160405180910390a35050565b6000806323b872dd60e01b90506040518160005260001960601c871660045260001960601c8616602452846044526020600060646000808c5af19250600160005114831662000bfb57838315161562000bee573d6000823e3d81fd5b6000883b113d1516831692505b806040526000606052505095945050505050565b600033905090565b611a95806200158283390190565b611c58806200301783390190565b600073ffffffffffffffffffffffffffffffffffffffff82169050919050565b6000819050919050565b600062000c7e62000c7862000c728462000c33565b62000c53565b62000c33565b9050919050565b600062000c928262000c5d565b9050919050565b600062000ca68262000c85565b9050919050565b62000cb88162000c99565b82525050565b600060208201905062000cd5600083018462000cad565b92915050565b600081519050919050565b600082825260208201905092915050565b6000819050602082019050919050565b600062000d148262000c33565b9050919050565b62000d268162000d07565b82525050565b600062000d3a838362000d1b565b60208301905092915050565b6000602082019050919050565b600062000d608262000cdb565b62000d6c818562000ce6565b935062000d798362000cf7565b8060005b8381101562000db057815162000d94888262000d2c565b975062000da18362000d46565b92505060018101905062000d7d565b5085935050505092915050565b6000602082019050818103600083015262000dd9818462000d53565b905092915050565b6000819050919050565b62000df68162000de1565b82525050565b600060208201905062000e13600083018462000deb565b92915050565b6000604051905090565b600080fd5b600080fd5b600080fd5b600080fd5b6000601f19601f8301169050919050565b7f4e487b7100000000000000000000000000000000000000000000000000000000600052604160045260246000fd5b62000e828262000e37565b810181811067ffffffffffffffff8211171562000ea45762000ea362000e48565b5b80604052505050565b600062000eb962000e19565b905062000ec7828262000e77565b919050565b600067ffffffffffffffff82111562000eea5762000ee962000e48565b5b62000ef58262000e37565b9050602081019050919050565b82818337600083830152505050565b600062000f2862000f228462000ecc565b62000ead565b90508281526020810184848401111562000f475762000f4662000e32565b5b62000f5484828562000f02565b509392505050565b600082601f83011262000f745762000f7362000e2d565b5b813562000f8684826020860162000f11565b91505092915050565b62000f9a8162000de1565b811462000fa657600080fd5b50565b60008135905062000fba8162000f8f565b92915050565b60008060006060848603121562000fdc5762000fdb62000e23565b5b600084013567ffffffffffffffff81111562000ffd5762000ffc62000e28565b5b6200100b8682870162000f5c565b935050602084013567ffffffffffffffff8111156200102f576200102e62000e28565b5b6200103d8682870162000f5c565b9250506040620010508682870162000fa9565b9150509250925092565b620010658162000d07565b82525050565b60006040820190506200108260008301856200105a565b6200109160208301846200105a565b9392505050565b600060208284031215620010b157620010b062000e23565b5b6000620010c18482850162000fa9565b91505092915050565b6000602082019050620010e160008301846200105a565b92915050565b620010f28162000d07565b8114620010fe57600080fd5b50565b6000813590506200111281620010e7565b92915050565b60006020828403121562001131576200113062000e23565b5b6000620011418482850162001101565b91505092915050565b60008115159050919050565b62001161816200114a565b82525050565b60006020820190506200117e600083018462001156565b92915050565b600082825260208201905092915050565b7f496e76616c6964206e616d650000000000000000000000000000000000000000600082015250565b6000620011cd600c8362001184565b9150620011da8262001195565b602082019050919050565b600060208201905081810360008301526200120081620011be565b9050919050565b7f496e76616c69642073796d626f6c000000000000000000000000000000000000600082015250565b60006200123f600e8362001184565b91506200124c8262001207565b602082019050919050565b60006020820190508181036000830152620012728162001230565b9050919050565b7f496e73756666696369656e742055534443207365656400000000000000000000600082015250565b6000620012b160168362001184565b9150620012be8262001279565b602082019050919050565b60006020820190508181036000830152620012e481620012a2565b9050919050565b600081519050919050565b60005b8381101562001316578082015181840152602081019050620012f9565b60008484015250505050565b60006200132f82620012eb565b6200133b818562001184565b93506200134d818560208601620012f6565b620013588162000e37565b840191505092915050565b600060608201905081810360008301526200137f818662001322565b9050818103602083015262001395818562001322565b9050620013a660408301846200105a565b949350505050565b6000606082019050620013c560008301866200105a565b620013d460208301856200105a565b620013e360408301846200105a565b949350505050565b600081519050620013fc8162000f8f565b92915050565b6000602082840312156200141b576200141a62000e23565b5b60006200142b84828501620013eb565b91505092915050565b7f466163746f7279207265636569766564206e6f20746f6b656e73000000000000600082015250565b60006200146c601a8362001184565b9150620014798262001434565b602082019050919050565b600060208201905081810360008301526200149f816200145d565b9050919050565b6000604082019050620014bd60008301856200105a565b620014cc602083018462000deb565b9392505050565b620014de816200114a565b8114620014ea57600080fd5b50565b600081519050620014fe81620014d3565b92915050565b6000602082840312156200151d576200151c62000e23565b5b60006200152d84828501620014ed565b91505092915050565b6000606082019050818103600083015262001552818662001322565b9050818103602083015262001568818562001322565b905062001579604083018462000deb565b94935050505056fe60806040523480156200001157600080fd5b5060405162001a9538038062001a95833981810160405281019062000037919062000603565b828281600390816200004a9190620008e8565b5080600490816200005c9190620008e8565b505050600073ffffffffffffffffffffffffffffffffffffffff168173ffffffffffffffffffffffffffffffffffffffff1603620000d1576040517f08c379a0000000000000000000000000000000000000000000000000000000008152600401620000c89062000a30565b60405180910390fd5b620000ef816b014adf4b7320334b900000006200014460201b60201c565b6200010d336b01f04ef12cb04cf1580000006200014460201b60201c565b6b033b2e3c9fd0803ce80000006200012a620001d160201b60201c565b146200013b576200013a62000a52565b5b50505062000b84565b600073ffffffffffffffffffffffffffffffffffffffff168273ffffffffffffffffffffffffffffffffffffffff1603620001b95760006040517fec442f05000000000000000000000000000000000000000000000000000000008152600401620001b0919062000a92565b60405180910390fd5b620001cd60008383620001db60201b60201c565b5050565b6000600254905090565b600073ffffffffffffffffffffffffffffffffffffffff168373ffffffffffffffffffffffffffffffffffffffff16036200023157806002600082825462000224919062000ade565b9250508190555062000307565b60008060008573ffffffffffffffffffffffffffffffffffffffff1673ffffffffffffffffffffffffffffffffffffffff16815260200190815260200160002054905081811015620002c0578381836040517fe450d38c000000000000000000000000000000000000000000000000000000008152600401620002b79392919062000b2a565b60405180910390fd5b8181036000808673ffffffffffffffffffffffffffffffffffffffff1673ffffffffffffffffffffffffffffffffffffffff16815260200190815260200160002081905550505b600073ffffffffffffffffffffffffffffffffffffffff168273ffffffffffffffffffffffffffffffffffffffff16036200035257806002600082825403925050819055506200039f565b806000808473ffffffffffffffffffffffffffffffffffffffff1673ffffffffffffffffffffffffffffffffffffffff168152602001908152602001600020600082825401925050819055505b8173ffffffffffffffffffffffffffffffffffffffff168373ffffffffffffffffffffffffffffffffffffffff167fddf252ad1be2c89b69c2b068fc378daa952ba7f163c4a11628f55a4df523b3ef83604051620003fe919062000b67565b60405180910390a3505050565b6000604051905090565b600080fd5b600080fd5b600080fd5b600080fd5b6000601f19601f8301169050919050565b7f4e487b7100000000000000000000000000000000000000000000000000000000600052604160045260246000fd5b620004748262000429565b810181811067ffffffffffffffff821117156200049657620004956200043a565b5b80604052505050565b6000620004ab6200040b565b9050620004b9828262000469565b919050565b600067ffffffffffffffff821115620004dc57620004db6200043a565b5b620004e78262000429565b9050602081019050919050565b60005b8381101562000514578082015181840152602081019050620004f7565b60008484015250505050565b6000620005376200053184620004be565b6200049f565b90508281526020810184848401111562000556576200055562000424565b5b62000563848285620004f4565b509392505050565b600082601f8301126200058357620005826200041f565b5b81516200059584826020860162000520565b91505092915050565b600073ffffffffffffffffffffffffffffffffffffffff82169050919050565b6000620005cb826200059e565b9050919050565b620005dd81620005be565b8114620005e957600080fd5b50565b600081519050620005fd81620005d2565b92915050565b6000806000606084860312156200061f576200061e62000415565b5b600084015167ffffffffffffffff81111562000640576200063f6200041a565b5b6200064e868287016200056b565b935050602084015167ffffffffffffffff8111156200067257620006716200041a565b5b62000680868287016200056b565b92505060406200069386828701620005ec565b9150509250925092565b600081519050919050565b7f4e487b7100000000000000000000000000000000000000000000000000000000600052602260045260246000fd5b60006002820490506001821680620006f057607f821691505b602082108103620007065762000705620006a8565b5b50919050565b60008190508160005260206000209050919050565b60006020601f8301049050919050565b600082821b905092915050565b600060088302620007707fffffffffffffffffffffffffffffffffffffffffffffffffffffffffffffffff8262000731565b6200077c868362000731565b95508019841693508086168417925050509392505050565b6000819050919050565b6000819050919050565b6000620007c9620007c3620007bd8462000794565b6200079e565b62000794565b9050919050565b6000819050919050565b620007e583620007a8565b620007fd620007f482620007d0565b8484546200073e565b825550505050565b600090565b6200081462000805565b62000821818484620007da565b505050565b5b8181101562000849576200083d6000826200080a565b60018101905062000827565b5050565b601f821115620008985762000862816200070c565b6200086d8462000721565b810160208510156200087d578190505b620008956200088c8562000721565b83018262000826565b50505b505050565b600082821c905092915050565b6000620008bd600019846008026200089d565b1980831691505092915050565b6000620008d88383620008aa565b9150826002028217905092915050565b620008f3826200069d565b67ffffffffffffffff8111156200090f576200090e6200043a565b5b6200091b8254620006d7565b620009288282856200084d565b600060209050601f8311600181146200096057600084156200094b578287015190505b620009578582620008ca565b865550620009c7565b601f19841662000970866200070c565b60005b828110156200099a5784890151825560018201915060208501945060208101905062000973565b86831015620009ba5784890151620009b6601f891682620008aa565b8355505b6001600288020188555050505b505050505050565b600082825260208201905092915050565b7f496e76616c69642063726561746f722061646472657373000000000000000000600082015250565b600062000a18601783620009cf565b915062000a2582620009e0565b602082019050919050565b6000602082019050818103600083015262000a4b8162000a09565b9050919050565b7f4e487b7100000000000000000000000000000000000000000000000000000000600052600160045260246000fd5b62000a8c81620005be565b82525050565b600060208201905062000aa9600083018462000a81565b92915050565b7f4e487b7100000000000000000000000000000000000000000000000000000000600052601160045260246000fd5b600062000aeb8262000794565b915062000af88362000794565b925082820190508082111562000b135762000b1262000aaf565b5b92915050565b62000b248162000794565b82525050565b600060608201905062000b41600083018662000a81565b62000b50602083018562000b19565b62000b5f604083018462000b19565b949350505050565b600060208201905062000b7e600083018462000b19565b92915050565b610f018062000b946000396000f3fe608060405234801561001057600080fd5b50600436106100b45760003560e01c8063627a6bf611610071578063627a6bf61461019157806370a08231146101af578063902d55a5146101df57806395d89b41146101fd578063a9059cbb1461021b578063dd62ed3e1461024b576100b4565b806306fdde03146100b9578063095ea7b3146100d757806318160ddd1461010757806323b872dd146101255780632bc7306314610155578063313ce56714610173575b600080fd5b6100c161027b565b6040516100ce9190610b55565b60405180910390f35b6100f160048036038101906100ec9190610c10565b61030d565b6040516100fe9190610c6b565b60405180910390f35b61010f610330565b60405161011c9190610c95565b60405180910390f35b61013f600480360381019061013a9190610cb0565b61033a565b60405161014c9190610c6b565b60405180910390f35b61015d610369565b60405161016a9190610c95565b60405180910390f35b61017b610379565b6040516101889190610d1f565b60405180910390f35b610199610382565b6040516101a69190610c95565b60405180910390f35b6101c960048036038101906101c49190610d3a565b610392565b6040516101d69190610c95565b60405180910390f35b6101e76103da565b6040516101f49190610c95565b60405180910390f35b6102056103ea565b6040516102129190610b55565b60405180910390f35b61023560048036038101906102309190610c10565b61047c565b6040516102429190610c6b565b60405180910390f35b61026560048036038101906102609190610d67565b61049f565b6040516102729190610c95565b60405180910390f35b60606003805461028a90610dd6565b80601f01602080910402602001604051908101604052809291908181526020018280546102b690610dd6565b80156103035780601f106102d857610100808354040283529160200191610303565b820191906000526020600020905b8154815290600101906020018083116102e657829003601f168201915b5050505050905090565b600080610318610526565b905061032581858561052e565b600191505092915050565b6000600254905090565b600080610345610526565b9050610352858285610540565b61035d8585856105d5565b60019150509392505050565b6b014adf4b7320334b9000000081565b60006012905090565b6b01f04ef12cb04cf15800000081565b60008060008373ffffffffffffffffffffffffffffffffffffffff1673ffffffffffffffffffffffffffffffffffffffff168152602001908152602001600020549050919050565b6b033b2e3c9fd0803ce800000081565b6060600480546103f990610dd6565b80601f016020809104026020016040519081016040528092919081815260200182805461042590610dd6565b80156104725780601f1061044757610100808354040283529160200191610472565b820191906000526020600020905b81548152906001019060200180831161045557829003601f168201915b5050505050905090565b600080610487610526565b90506104948185856105d5565b600191505092915050565b6000600160008473ffffffffffffffffffffffffffffffffffffffff1673ffffffffffffffffffffffffffffffffffffffff16815260200190815260200160002060008373ffffffffffffffffffffffffffffffffffffffff1673ffffffffffffffffffffffffffffffffffffffff16815260200190815260200160002054905092915050565b600033905090565b61053b83838360016106c9565b505050565b600061054c848461049f565b90507fffffffffffffffffffffffffffffffffffffffffffffffffffffffffffffffff8110156105cf57818110156105bf578281836040517ffb8f41b20000000000000000000000000000000000000000000000000000000081526004016105b693929190610e16565b60405180910390fd5b6105ce848484840360006106c9565b5b50505050565b600073ffffffffffffffffffffffffffffffffffffffff168373ffffffffffffffffffffffffffffffffffffffff16036106475760006040517f96c6fd1e00000000000000000000000000000000000000000000000000000000815260040161063e9190610e4d565b60405180910390fd5b600073ffffffffffffffffffffffffffffffffffffffff168273ffffffffffffffffffffffffffffffffffffffff16036106b95760006040517fec442f050000000000000000000000000000000000000000000000000000000081526004016106b09190610e4d565b60405180910390fd5b6106c48383836108a0565b505050565b600073ffffffffffffffffffffffffffffffffffffffff168473ffffffffffffffffffffffffffffffffffffffff160361073b5760006040517fe602df050000000000000000000000000000000000000000000000000000000081526004016107329190610e4d565b60405180910390fd5b600073ffffffffffffffffffffffffffffffffffffffff168373ffffffffffffffffffffffffffffffffffffffff16036107ad5760006040517f94280d620000000000000000000000000000000000000000000000000000000081526004016107a49190610e4d565b60405180910390fd5b81600160008673ffffffffffffffffffffffffffffffffffffffff1673ffffffffffffffffffffffffffffffffffffffff16815260200190815260200160002060008573ffffffffffffffffffffffffffffffffffffffff1673ffffffffffffffffffffffffffffffffffffffff16815260200190815260200160002081905550801561089a578273ffffffffffffffffffffffffffffffffffffffff168473ffffffffffffffffffffffffffffffffffffffff167f8c5be1e5ebec7d5bd14f71427d1e84f3dd0314c0f7b2291e5b200ac8c7c3b925846040516108919190610c95565b60405180910390a35b50505050565b600073ffffffffffffffffffffffffffffffffffffffff168373ffffffffffffffffffffffffffffffffffffffff16036108f25780600260008282546108e69190610e97565b925050819055506109c5565b60008060008573ffffffffffffffffffffffffffffffffffffffff1673ffffffffffffffffffffffffffffffffffffffff1681526020019081526020016000205490508181101561097e578381836040517fe450d38c00000000000000000000000000000000000000000000000000000000815260040161097593929190610e16565b60405180910390fd5b8181036000808673ffffffffffffffffffffffffffffffffffffffff1673ffffffffffffffffffffffffffffffffffffffff16815260200190815260200160002081905550505b600073ffffffffffffffffffffffffffffffffffffffff168273ffffffffffffffffffffffffffffffffffffffff1603610a0e5780600260008282540392505081905550610a5b565b806000808473ffffffffffffffffffffffffffffffffffffffff1673ffffffffffffffffffffffffffffffffffffffff168152602001908152602001600020600082825401925050819055505b8173ffffffffffffffffffffffffffffffffffffffff168373ffffffffffffffffffffffffffffffffffffffff167fddf252ad1be2c89b69c2b068fc378daa952ba7f163c4a11628f55a4df523b3ef83604051610ab89190610c95565b60405180910390a3505050565b600081519050919050565b600082825260208201905092915050565b60005b83811015610aff578082015181840152602081019050610ae4565b60008484015250505050565b6000601f19601f8301169050919050565b6000610b2782610ac5565b610b318185610ad0565b9350610b41818560208601610ae1565b610b4a81610b0b565b840191505092915050565b60006020820190508181036000830152610b6f8184610b1c565b905092915050565b600080fd5b600073ffffffffffffffffffffffffffffffffffffffff82169050919050565b6000610ba782610b7c565b9050919050565b610bb781610b9c565b8114610bc257600080fd5b50565b600081359050610bd481610bae565b92915050565b6000819050919050565b610bed81610bda565b8114610bf857600080fd5b50565b600081359050610c0a81610be4565b92915050565b60008060408385031215610c2757610c26610b77565b5b6000610c3585828601610bc5565b9250506020610c4685828601610bfb565b9150509250929050565b60008115159050919050565b610c6581610c50565b82525050565b6000602082019050610c806000830184610c5c565b92915050565b610c8f81610bda565b82525050565b6000602082019050610caa6000830184610c86565b92915050565b600080600060608486031215610cc957610cc8610b77565b5b6000610cd786828701610bc5565b9350506020610ce886828701610bc5565b9250506040610cf986828701610bfb565b9150509250925092565b600060ff82169050919050565b610d1981610d03565b82525050565b6000602082019050610d346000830184610d10565b92915050565b600060208284031215610d5057610d4f610b77565b5b6000610d5e84828501610bc5565b91505092915050565b60008060408385031215610d7e57610d7d610b77565b5b6000610d8c85828601610bc5565b9250506020610d9d85828601610bc5565b9150509250929050565b7f4e487b7100000000000000000000000000000000000000000000000000000000600052602260045260246000fd5b60006002820490506001821680610dee57607f821691505b602082108103610e0157610e00610da7565b5b50919050565b610e1081610b9c565b82525050565b6000606082019050610e2b6000830186610e07565b610e386020830185610c86565b610e456040830184610c86565b949350505050565b6000602082019050610e626000830184610e07565b92915050565b7f4e487b7100000000000000000000000000000000000000000000000000000000600052601160045260246000fd5b6000610ea282610bda565b9150610ead83610bda565b9250828201905080821115610ec557610ec4610e68565b5b9291505056fea2646970667358221220e1f5ed75a5a5c02836fd59a64dda050f9716b88c508d0545fc06a457519a579f64736f6c6343000818003360c06040523480156200001157600080fd5b5060405162001c5838038062001c588339818101604052810190620000379190620003a0565b8060016200005a6200004e6200023d60201b60201c565b6200026860201b60201c565b60000181905550600073ffffffffffffffffffffffffffffffffffffffff168173ffffffffffffffffffffffffffffffffffffffff1603620000d65760006040517f1e4fbdf7000000000000000000000000000000000000000000000000000000008152600401620000cd91906200040d565b60405180910390fd5b620000e7816200027260201b60201c565b50600073ffffffffffffffffffffffffffffffffffffffff168373ffffffffffffffffffffffffffffffffffffffff16036200015a576040517f08c379a000000000000000000000000000000000000000000000000000000000815260040162000151906200048b565b60405180910390fd5b600073ffffffffffffffffffffffffffffffffffffffff168273ffffffffffffffffffffffffffffffffffffffff1603620001cc576040517f08c379a0000000000000000000000000000000000000000000000000000000008152600401620001c390620004fd565b60405180910390fd5b8273ffffffffffffffffffffffffffffffffffffffff1660808173ffffffffffffffffffffffffffffffffffffffff16815250508173ffffffffffffffffffffffffffffffffffffffff1660a08173ffffffffffffffffffffffffffffffffffffffff16815250505050506200051f565b60007f9b779b17422d0df92223018b32b4d1fa46e071723d6817e2486d003becc55f0060001b905090565b6000819050919050565b60008060009054906101000a900473ffffffffffffffffffffffffffffffffffffffff169050816000806101000a81548173ffffffffffffffffffffffffffffffffffffffff021916908373ffffffffffffffffffffffffffffffffffffffff1602179055508173ffffffffffffffffffffffffffffffffffffffff168173ffffffffffffffffffffffffffffffffffffffff167f8be0079c531659141344cd1fd0a4f28419497f9722a3daafe3b4186f6b6457e060405160405180910390a35050565b600080fd5b600073ffffffffffffffffffffffffffffffffffffffff82169050919050565b600062000368826200033b565b9050919050565b6200037a816200035b565b81146200038657600080fd5b50565b6000815190506200039a816200036f565b92915050565b600080600060608486031215620003bc57620003bb62000336565b5b6000620003cc8682870162000389565b9350506020620003df8682870162000389565b9250506040620003f28682870162000389565b9150509250925092565b62000407816200035b565b82525050565b6000602082019050620004246000830184620003fc565b92915050565b600082825260208201905092915050565b7f496e76616c696420746f6b656e20616464726573730000000000000000000000600082015250565b6000620004736015836200042a565b915062000480826200043b565b602082019050919050565b60006020820190508181036000830152620004a68162000464565b9050919050565b7f496e76616c696420555344432061646472657373000000000000000000000000600082015250565b6000620004e56014836200042a565b9150620004f282620004ad565b602082019050919050565b600060208201905081810360008301526200051881620004d6565b9050919050565b60805160a0516116e96200056f6000396000818161023f015281816103e4015281816106df01526109db015260008181610303015281816105580152818161075d015261095d01526116e96000f3fe608060405234801561001057600080fd5b50600436106100ea5760003560e01c80638da5cb5b1161008c578063d6febde811610066578063d6febde8146101cb578063d79875eb146101e7578063f2fde38b14610203578063f4325d671461021f576100ea565b80638da5cb5b14610171578063972598e71461018f578063c87b502e146101ad576100ea565b80635c975abb116100c85780635c975abb14610135578063715018a6146101535780638129fc1c1461015d5780638456cb5914610167576100ea565b806311eac855146100ef5780633f4ba83a1461010d5780635aed4c7014610117575b600080fd5b6100f761023d565b604051610104919061107f565b60405180910390f35b610115610261565b005b61011f610273565b60405161012c91906110b3565b60405180910390f35b61013d61027a565b60405161014a91906110e9565b60405180910390f35b61015b610290565b005b6101656102a4565b005b61016f61051b565b005b61017961052d565b6040516101869190611125565b60405180910390f35b610197610556565b6040516101a4919061107f565b60405180910390f35b6101b561057a565b6040516101c291906110b3565b60405180910390f35b6101e560048036038101906101e09190611171565b610580565b005b61020160048036038101906101fc9190611171565b6107fe565b005b61021d600480360381019061021891906111dd565b610a7c565b005b610227610b02565b60405161023491906110b3565b60405180910390f35b7f000000000000000000000000000000000000000000000000000000000000000081565b610269610b08565b610271610b8f565b565b6298968081565b60008060149054906101000a900460ff16905090565b610298610b08565b6102a26000610bf1565b565b6102ac610cb5565b60006002541480156102c057506000600154145b6102ff576040517f08c379a00000000000000000000000000000000000000000000000000000000081526004016102f690611267565b60405180910390fd5b60007f000000000000000000000000000000000000000000000000000000000000000073ffffffffffffffffffffffffffffffffffffffff166370a08231306040518263ffffffff1660e01b815260040161035a9190611125565b602060405180830381865afa158015610377573d6000803e3d6000fd5b505050506040513d601f19601f8201168201806040525081019061039b919061129c565b9050600081116103e0576040517f08c379a00000000000000000000000000000000000000000000000000000000081526004016103d790611315565b60405180910390fd5b60007f000000000000000000000000000000000000000000000000000000000000000073ffffffffffffffffffffffffffffffffffffffff166370a08231306040518263ffffffff1660e01b815260040161043b9190611125565b602060405180830381865afa158015610458573d6000803e3d6000fd5b505050506040513d601f19601f8201168201806040525081019061047c919061129c565b9050629896808110156104c4576040517f08c379a00000000000000000000000000000000000000000000000000000000081526004016104bb90611381565b60405180910390fd5b81600181905550806002819055507f3ffddaebf2131ba012fa389229b73814e7ab6eea5db6e24b19ef484c55b2490f6001546002546040516105079291906113a1565b60405180910390a15050610519610cd8565b565b610523610b08565b61052b610cf3565b565b60008060009054906101000a900473ffffffffffffffffffffffffffffffffffffffff16905090565b7f000000000000000000000000000000000000000000000000000000000000000081565b60025481565b610588610cb5565b610590610d56565b600082116105d3576040517f08c379a00000000000000000000000000000000000000000000000000000000081526004016105ca90611416565b60405180910390fd5b60006002541180156105e757506000600154115b610626576040517f08c379a000000000000000000000000000000000000000000000000000000000815260040161061d90611482565b60405180910390fd5b60008260025461063691906114d1565b836001546106449190611505565b61064e9190611576565b905081811015610693576040517f08c379a000000000000000000000000000000000000000000000000000000000815260040161068a906115f3565b60405180910390fd5b60015481106106d7576040517f08c379a00000000000000000000000000000000000000000000000000000000081526004016106ce9061165f565b60405180910390fd5b6107243330857f000000000000000000000000000000000000000000000000000000000000000073ffffffffffffffffffffffffffffffffffffffff16610d97909392919063ffffffff16565b826002600082825461073691906114d1565b92505081905550806001600082825461074f919061167f565b925050819055506107a133827f000000000000000000000000000000000000000000000000000000000000000073ffffffffffffffffffffffffffffffffffffffff16610dec9092919063ffffffff16565b3373ffffffffffffffffffffffffffffffffffffffff167f1cbc5ab135991bd2b6a4b034a04aa2aa086dac1371cb9b16b8b5e2ed6b036bed84836040516107e99291906113a1565b60405180910390a2506107fa610cd8565b5050565b610806610cb5565b61080e610d56565b60008211610851576040517f08c379a000000000000000000000000000000000000000000000000000000000815260040161084890611416565b60405180910390fd5b600060025411801561086557506000600154115b6108a4576040517f08c379a000000000000000000000000000000000000000000000000000000000815260040161089b90611482565b60405180910390fd5b6000826001546108b491906114d1565b836002546108c29190611505565b6108cc9190611576565b905081811015610911576040517f08c379a0000000000000000000000000000000000000000000000000000000008152600401610908906115f3565b60405180910390fd5b6002548110610955576040517f08c379a000000000000000000000000000000000000000000000000000000000815260040161094c9061165f565b60405180910390fd5b6109a23330857f000000000000000000000000000000000000000000000000000000000000000073ffffffffffffffffffffffffffffffffffffffff16610d97909392919063ffffffff16565b82600160008282546109b491906114d1565b9250508190555080600260008282546109cd919061167f565b92505081905550610a1f33827f000000000000000000000000000000000000000000000000000000000000000073ffffffffffffffffffffffffffffffffffffffff16610dec9092919063ffffffff16565b3373ffffffffffffffffffffffffffffffffffffffff167fed7a144fad14804d5c249145e3e0e2b63a9eb455b76aee5bc92d711e9bba3e4a8483604051610a679291906113a1565b60405180910390a250610a78610cd8565b5050565b610a84610b08565b600073ffffffffffffffffffffffffffffffffffffffff168173ffffffffffffffffffffffffffffffffffffffff1603610af65760006040517f1e4fbdf7000000000000000000000000000000000000000000000000000000008152600401610aed9190611125565b60405180910390fd5b610aff81610bf1565b50565b60015481565b610b10610e3f565b73ffffffffffffffffffffffffffffffffffffffff16610b2e61052d565b73ffffffffffffffffffffffffffffffffffffffff1614610b8d57610b51610e3f565b6040517f118cdaa7000000000000000000000000000000000000000000000000000000008152600401610b849190611125565b60405180910390fd5b565b610b97610e47565b60008060146101000a81548160ff0219169083151502179055507f5db9ee0a495bf2e6ff9c91a7834c1ba4fdd244a5e8aa4e537bd38aeae4b073aa610bda610e3f565b604051610be79190611125565b60405180910390a1565b60008060009054906101000a900473ffffffffffffffffffffffffffffffffffffffff169050816000806101000a81548173ffffffffffffffffffffffffffffffffffffffff021916908373ffffffffffffffffffffffffffffffffffffffff1602179055508173ffffffffffffffffffffffffffffffffffffffff168173ffffffffffffffffffffffffffffffffffffffff167f8be0079c531659141344cd1fd0a4f28419497f9722a3daafe3b4186f6b6457e060405160405180910390a35050565b610cbd610e87565b6002610ccf610cca610ec8565b610ef3565b60000181905550565b6001610cea610ce5610ec8565b610ef3565b60000181905550565b610cfb610d56565b6001600060146101000a81548160ff0219169083151502179055507f62e78cea01bee320cd4e420270b5ea74000d11b0c9f74754ebdbfc544b05a258610d3f610e3f565b604051610d4c9190611125565b60405180910390a1565b610d5e61027a565b15610d95576040517fd93c066500000000000000000000000000000000000000000000000000000000815260040160405180910390fd5b565b610da5848484846001610efd565b610de657836040517f5274afe7000000000000000000000000000000000000000000000000000000008152600401610ddd9190611125565b60405180910390fd5b50505050565b610df98383836001610f78565b610e3a57826040517f5274afe7000000000000000000000000000000000000000000000000000000008152600401610e319190611125565b60405180910390fd5b505050565b600033905090565b610e4f61027a565b610e85576040517f8dfc202b00000000000000000000000000000000000000000000000000000000815260040160405180910390fd5b565b610e8f610fe2565b15610ec6576040517f3ee5aeb500000000000000000000000000000000000000000000000000000000815260040160405180910390fd5b565b60007f9b779b17422d0df92223018b32b4d1fa46e071723d6817e2486d003becc55f0060001b905090565b6000819050919050565b6000806323b872dd60e01b90506040518160005260001960601c871660045260001960601c8616602452846044526020600060646000808c5af192506001600051148316610f64578383151615610f57573d6000823e3d81fd5b6000883b113d1516831692505b806040526000606052505095945050505050565b60008063a9059cbb60e01b90506040518160005260001960601c8616600452846024526020600060446000808b5af192506001600051148316610fd4578383151615610fc7573d6000823e3d81fd5b6000873b113d1516831692505b806040525050949350505050565b60006002610ff6610ff1610ec8565b610ef3565b6000015414905090565b600073ffffffffffffffffffffffffffffffffffffffff82169050919050565b6000819050919050565b600061104561104061103b84611000565b611020565b611000565b9050919050565b60006110578261102a565b9050919050565b60006110698261104c565b9050919050565b6110798161105e565b82525050565b60006020820190506110946000830184611070565b92915050565b6000819050919050565b6110ad8161109a565b82525050565b60006020820190506110c860008301846110a4565b92915050565b60008115159050919050565b6110e3816110ce565b82525050565b60006020820190506110fe60008301846110da565b92915050565b600061110f82611000565b9050919050565b61111f81611104565b82525050565b600060208201905061113a6000830184611116565b92915050565b600080fd5b61114e8161109a565b811461115957600080fd5b50565b60008135905061116b81611145565b92915050565b6000806040838503121561118857611187611140565b5b60006111968582860161115c565b92505060206111a78582860161115c565b9150509250929050565b6111ba81611104565b81146111c557600080fd5b50565b6000813590506111d7816111b1565b92915050565b6000602082840312156111f3576111f2611140565b5b6000611201848285016111c8565b91505092915050565b600082825260208201905092915050565b7f416c726561647920696e697469616c697a656400000000000000000000000000600082015250565b600061125160138361120a565b915061125c8261121b565b602082019050919050565b6000602082019050818103600083015261128081611244565b9050919050565b60008151905061129681611145565b92915050565b6000602082840312156112b2576112b1611140565b5b60006112c084828501611287565b91505092915050565b7f4e6f20746f6b656e732070726f766964656420666f72206c6971756964697479600082015250565b60006112ff60208361120a565b915061130a826112c9565b602082019050919050565b6000602082019050818103600083015261132e816112f2565b9050919050565b7f496e73756666696369656e742055534443207365656400000000000000000000600082015250565b600061136b60168361120a565b915061137682611335565b602082019050919050565b6000602082019050818103600083015261139a8161135e565b9050919050565b60006040820190506113b660008301856110a4565b6113c360208301846110a4565b9392505050565b7f496e76616c696420696e70757420616d6f756e74000000000000000000000000600082015250565b600061140060148361120a565b915061140b826113ca565b602082019050919050565b6000602082019050818103600083015261142f816113f3565b9050919050565b7f4d61726b6574206e6f7420696e697469616c697a656400000000000000000000600082015250565b600061146c60168361120a565b915061147782611436565b602082019050919050565b6000602082019050818103600083015261149b8161145f565b9050919050565b7f4e487b7100000000000000000000000000000000000000000000000000000000600052601160045260246000fd5b60006114dc8261109a565b91506114e78361109a565b92508282019050808211156114ff576114fe6114a2565b5b92915050565b60006115108261109a565b915061151b8361109a565b92508282026115298161109a565b915082820484148315176115405761153f6114a2565b5b5092915050565b7f4e487b7100000000000000000000000000000000000000000000000000000000600052601260045260246000fd5b60006115818261109a565b915061158c8361109a565b92508261159c5761159b611547565b5b828204905092915050565b7f536c69707061676520746f6c6572616e63652065786365656465640000000000600082015250565b60006115dd601b8361120a565b91506115e8826115a7565b602082019050919050565b6000602082019050818103600083015261160c816115d0565b9050919050565b7f496e73756666696369656e74206c697175696469747900000000000000000000600082015250565b600061164960168361120a565b915061165482611613565b602082019050919050565b600060208201905081810360008301526116788161163c565b9050919050565b600061168a8261109a565b91506116958361109a565b92508282039050818111156116ad576116ac6114a2565b5b9291505056fea264697066735822122052fe8fe99905921e08a4338be3001437e98d876b297dcd323bd3f44ea739473464736f6c63430008180033a264697066735822122050a3b77ff3fe4aa5fe460a54574d6e9c02d327c8f3c67d2c7b18712c5c5763c464736f6c63430008180033",
  "linkReferences": {},
  "deployedLinkReferences": {}
}